A00001JOHN SMITH               20260101010000000          
A00002JANE DOE                 20250101005000000          
A00003BOB MARLEY               20260115020000000          
A00004ALICE COOPER             20260101003000000          
