000100IVAN PETROV              A00070000000                             
000200MARIA SIDOROVA           A00020000000                             
000300ALEXEY KOZLOV            A00080000000                             
000400CLOSED ACCOUNT           C00050000000                             
000500FOUND NO DB2             A00100000000                             
