000001IVAN PETROV                   RUA00050000000010000020260101
000002MARIA SIDOROVA                RUA00030000000005000020260115
000003JOHN SMITH                    USA00080000000020000020260110
000004ANNA VOLKOVA                  RUI00020000000000000020260201
000005ALEX LEE                      EUA00060000000015000020260120
