000100IVAN IVANOV              755010000000
000200PETR PETROV              650100500000
000300MARIA SIDOROVA           820012000000
000400UNKNOWN GUY              400050010000
