00100JOHN DOE            IT 050000019950101A
00200JANE SMITH          HR 045000020000515A
00300BOB MARLEY          SAL060000019700206I
     EMPTY ID EMPLOYEE   IT 040000020200101A
00400ALICE WONDERLAND    FIN055000019980315A
00500                    IT 035000020210101A
00600CHARLIE BROWN       IT 048000019991220A
00700DAVID BECKHAM       SALXXXXXXX20050701A
00800EMMA WATSON         HR 000000020010610A
00900FRANK SINATRA       IT 062000019151212A
00100JOHN DOE UPDATED    SAL075000019950101A
01000GRACE KELLY         HR 049000019561112A
01100HENRY FORD          IT XXXXXXX20200101A
01200IRENE CURIE         FIN051000019960615A
00200JANE SMITH PROMO    HR 065000020000515A
01300JACK LONDON         IT 053000018760116X
01400KATE WINSLET        SAL058000019751005A
00300BOB MARLEY ACTIVE   IT 085000019700206A
01500LARRY PAGE          IT 092000019980907A
01600MARY SHELLEY        FIN047000017970830A
01700MICHAEL JACKSON     HR 067000019580829I
01800ELVIS PRESLEY       SAL071000019350108I
01900WHITNEY HOUSTON     HR 063000019630809I
02000PRINCE ROGERS       IT 069000019580607I
